:020000040000FA
:100000000C9458010C9480010C9480010C94800194
:100010000C9480010C9480010C9480010C9480015C
:100020000C9480010C9480010C9480010C9480014C
:100030000C9480010C9480010C9480010C9480013C
:100040000C94B11D0C9480010C94211E0C94FB1D8A
:100050000C9480010C9480010C9480010C9480011C
:100060000C9480010C94800100407A10F35A00A097
:10007000724E18090010A5D4E80000E87648170071
:1000800000E40B54020000CA9A3B000000E1F505B1
:10009000000080969800000040420F000000A086FB
:1000A00001000000102700000000E803000000002D
:1000B0006400000000000A000000000001000000D1
:1000C00000002C76D888DC674F0823DFC1DFAE59EB
:1000D000E1B1B796E5E3E453C63AE651997696E87E
:1000E000E6C28426EB898C9B62ED407C6FFCEFBC02
:1000F0009C9F40F2BAA56FA5F490055A2AF75C932D
:100100006B6CF9676DC11BFCE0E40D47FEF520E662
:10011000B500D0ED902E0300943577050080841E45
:10012000080000204E0A000000C80C333333330FA0
:10013000986E12831141EF8D2114893BE65516CF3D
:10014000FEE6DB18D1844B381BF77C1D901DA4BB49
:10015000E424203284725E228100C9F124ECA1E5FE
:100160003D2725732573007B227375636365737365
:10017000223A66616C73652C22636F6465223A349F
:1001800030347D007B2273756363657373223A7428
:100190007275652C22726573756C74223A22257310
:1001A000227D007B2273756363657373223A7472D8
:1001B00075652C2272656C6179223A25752C227541
:1001C0007074696D65223A256C757D00676574539E
:1001D00074617475730073657452656C6179007B2A
:1001E0002274656D7065726174757265223A25734B
:1001F0002C202268756D6964697479223A25732C04
:10020000226C6D333554656D70223A25732C22763D
:100210006962726174696F6E223A25752C226D6174
:100220006368696E65537461747573223A25752C21
:100230002272656C61795374617465223A25752C5C
:100240002273656E736F724572726F72223A2575F2
:100250007D0000000000240027002A0000000000AC
:10026000250028002B000000000800020100000308
:100270000407000000000000000000000000230050
:1002800026002900040404040404040402020202F7
:100290000202030303030303010204081020408049
:1002A000010204081020010204081020531E6427D4
:1002B00011241FBECFEFD8E0DEBFCDBF12E0A0E01B
:1002C000B1E0E2E7F2E602C005900D92AE38B10768
:1002D000D9F725E0AEE8B2E001C01D92AA34B2071A
:1002E000E1F711E0C7E5D1E004C02197FE010E94CB
:1002F0008C2FC635D107C9F70E94611F0C942C3191
:100300000C940000CF92DF92EF92FF92CF93DF9395
:10031000B0913A05A0E08111AB2F80913B0590E0B0
:10032000880F991FAC0146585D4FC0904005D09092
:100330004105E0904205F090430530E020E0FA01ED
:10034000C591D491E881B90190E080E0EB23EA13F4
:100350000AC02F5F3F4F6C157D058E059F0578F312
:100360006FEF7FEFCB01DF91CF91FF90EF90DF90A8
:10037000CF900895CF93DF93EC01FA013296E60F08
:10038000F71FDC019D012C1B3D0BCF01861B970B3A
:100390004D91442311F04193F5CFAC01421B530B17
:1003A000640F751FFB013297308361507109FB01A7
:1003B0002083DF91CF9108958CBD9DBD089520E3EA
:1003C000FC0120833296862F82958F706F706A3081
:1003D00030F4605D6293682F8111F5CF0895695CF8
:1003E000F9CFFC01818D928D08950895833081F0BD
:1003F00028F4813099F08230A9F008958730A9F06F
:100400008830C9F08430B1F4809180008F7D03C0C2
:10041000809180008F7780938000089584B58F77D6
:1004200084BD089584B58F7DFBCF8091B0008F7718
:100430008093B00008958091B0008F7DF9CF1F9315
:10044000CF93DF93282F30E0F901EA59FD4F8491D3
:10045000F901E856FD4FD491F901EC57FD4FC491D5
:10046000CC23A9F0162F81110E94F601EC2FF0E0A9
:10047000EE0FFF1FE45AFD4FA591B4918FB7F8948A
:10048000EC91111108C0D095DE23DC938FBFDF9172
:10049000CF911F910895DE2BF8CFCF93DF9390E09B
:1004A000FC01E856FD4F24918C579D4FFC0184912F
:1004B0008823D1F090E0880F991FFC01EE5AFD4F80
:1004C000A591B491FC01E45AFD4FC591D4916230DD
:1004D00071F49FB7F8943C91822F809583238C937D
:1004E000E8812E2B28839FBFDF91CF9108958FB78E
:1004F000F894EC912E2B2C938FBFF6CF8E50806406
:1005000080937C0080917A00806480937A0080914F
:100510007A0086FDFCCF8091780090917900089553
:100520003FB7F8948091E9039091EA03A091EB031F
:10053000B091EC0326B5A89B05C02F3F19F001969A
:10054000A11DB11D3FBFBA2FA92F982F8827BC012D
:10055000CD01620F711D811D911D42E0660F771F55
:10056000881F991F4A95D1F708958F929F92AF9255
:10057000BF92CF92DF92EF92FF924B015C010E94FB
:1005800090026B017C010E9490026C197D098E091A
:100590009F09683E734081059105A8F321E0821A06
:1005A0009108A108B10888EEC80E83E0D81EE11CAE
:1005B000F11C81149104A104B10429F7FF90EF907C
:1005C000DF90CF90BF90AF909F908F9008952FB7FE
:1005D000F8946091E5037091E6038091E7039091B0
:1005E000E8032FBF0895CF92DF92EF92FF920F930F
:1005F0001F93CF93DF93CDB7DEB7C054D1400FB672
:10060000F894DEBF0FBECDBF0E94E70200913C050B
:1006100010913D0520913E0530913F056B017C0115
:10062000C01AD10AE20AF30A97018601003D174079
:100630002105310590F480914405C05CDE4F0FB672
:10064000F894DEBF0FBECDBFDF91CF911F910F9108
:10065000FF90EF90DF90CF90089560933C057093EA
:100660003D0580933E0590933F051092370510920B
:10067000360510923505109234051092330562E06C
:10068000809138050E944D0261E070E080E090E0CA
:100690000E94B50261E0809138050E944D0260E041
:1006A000809138050E941F02809139058551823062
:1006B00020F58BE291E10197F1F762E08091380536
:1006C0000E944D028091450590E08230910538F0FE
:1006D000880F991F880F991F05970197F1F7F894D4
:1006E00080E00E9482016F3F7F4F8F4F9F4F61F4E8
:1006F00010924405789480E0A0CF64E170E080E03F
:1007000090E00E94B502D9CF81E00E9482016F3F44
:100710007F4F8F4F9F4F61F38E010F5F1F4F6E0111
:100720002FEBC21A2EEFD20A780180E00E948201DC
:10073000F701608371838283938381E00E94820149
:10074000F7016483758386839783F8E0EF0EF11CCD
:10075000EC14FD0451F7789430E020E0F801C080FB
:10076000D180E280F3804481558166817781FFEFFB
:10077000CF16DF06EF06FF0631F04F3F8FEF580729
:100780006807780719F410924405B5CFF90183E0A2
:10079000F595E7958A95E1F7ED5CFA4F8081880F32
:1007A000C416D506E606F70610F180832F5F3F4F8B
:1007B000085F1F4F2832310589F640913705209197
:1007C000330580913405280F3327331F8091350579
:1007D000280F311D80913605820F932F911D992787
:1007E0004817190681F681E08093440526CF816081
:1007F000DCCF80918E020895AF92BF92CF92DF92AC
:10080000EF92FF920F931F93CF93DF936C017B01C5
:100810008B01040F151FEB015E01AE18BF08C01756
:10082000D10759F06991D601ED91FC910190F081C9
:10083000E02DC6010995892B79F7C501DF91CF918C
:100840001F910F91FF90EF90DF90CF90BF90AF90EE
:100850000895FC01538D448D252F30E0842F90E0C6
:10086000821B930B541710F0CF96089501970895AB
:10087000FC01918D828D981761F0A28DAE0FBF2F74
:10088000B11D5D968C91928D9F5F9F73928F90E0CA
:1008900008958FEF9FEF0895FC01918D828D981739
:1008A00031F0828DE80FF11D858D90E008958FEF76
:1008B0009FEF0895FC01918D228D892F90E0805C3F
:1008C0009F4F821B91098F73992708958AE094E0C6
:1008D0000E945A0421E0892B09F420E0822F089518
:1008E00080E090E0892B29F00E94660481110C942D
:1008F00000000895FC01A48DA80FB92FB11DA35AC3
:10090000BF4F2C91848D90E001968F739927848F2F
:10091000A689B7892C93A089B1898C918370806452
:100920008C93938D848D981306C00288F389E02DF3
:1009300080818F7D80830895EF92FF920F931F93A4
:10094000CF93DF93EC0181E0888F9B8D8C8D981382
:100950001AC0E889F989808185FF15C09FB7F8948E
:10096000EE89FF896083E889F989808183708064DA
:1009700080839FBF81E090E0DF91CF911F910F9125
:10098000FF90EF900895F62E0B8D10E00F5F1F4F34
:100990000F731127E02E8C8D8E110CC00FB607FC43
:1009A000FACFE889F989808185FFF5CFCE010E94D1
:1009B0007A04F1CFEB8DEC0FFD2FF11DE35AFF4FC1
:1009C000F0829FB7F8940B8FEA89FB89808180625F
:1009D000CFCFCF93DF93EC01888D8823B9F0AA891C
:1009E000BB89E889F9898C9185FD03C0808186FDEA
:1009F0000DC00FB607FCF7CF8C9185FFF2CF808139
:100A000085FFEDCFCE010E947A04E9CFDF91CF912F
:100A10000895CF93DF93FC01A481B581109711F461
:100A200080E029C0EC01ED91FC9111970688F789CF
:100A3000E02DCD0109952FA138A5811119C0232BD7
:100A400079F78DEF9FEF98A78FA38C819D81DC01B3
:100A5000ED91FC910680F781E02D09958C819D81B7
:100A6000DC01ED91FC910488F589E02D0995D8CF42
:100A700081E0232BA9F6DF91CF910895CF92DF92E9
:100A8000EF92FF920F931F93CF93DF9300D000D08C
:100A9000CDB7DEB78C01F90180E0DE0111967D0152
:100AA0009E2F9F77EE0FEF2FEE1FFF0BF1953097E4
:100AB00009F09068D701A80FB11D9C938F5F309704
:100AC00079F790E0FA01E81BF90B6483FA01E81B5F
:100AD000F90B3596D701BD016E197F0968177907A3
:100AE0001CF46D916193F7CFFC013196D8011496F7
:100AF0008D919C917F01E20EF31EBA016E1B7F0B5C
:100B00006B5F7F4FDC01ED91FC910280F381E02D62
:100B1000A70109956C010E94E702F801608B718BB7
:100B2000828B938B81E0EC14FD0409F080E00F9040
:100B30000F900F900F90DF91CF911F910F91FF9029
:100B4000EF90DF90CF900895EF92FF920F931F9355
:100B5000CF93DF93EC018B017A010E94E702688B4F
:100B6000798B8A8B9B8B8C819D81DC01ED91FC9133
:100B70000280F381E02DA701B801DF91CF911F9191
:100B80000F91FF90EF9009941F93CF93DF93EC01A7
:100B9000162F0E94E702688B798B8A8B9B8B8C8146
:100BA0009D81DC01ED91FC910190F081E02D612FA0
:100BB000DF91CF911F9109948F929F92AF92BF9234
:100BC000CF92DF92EF92FF920F931F93CF93DF9319
:100BD000EC018B010E94E7024B015C018C819D813D
:100BE000DC01ED91FC910084F185E02D0995892BC4
:100BF000A9F40E94E7026B017C01C818D908EA0831
:100C0000FB082C853D85A8EEB3E00E94AA2DC616F0
:100C1000D706E806F90610F380E00CC08C819D81B0
:100C2000DC01ED91FC910284F385E02D0995F8013A
:100C3000808381E0DF91CF911F910F91FF90EF9022
:100C4000DF90CF90BF90AF909F908F9008953F928C
:100C50004F925F926F927F928F929F92AF92BF92CC
:100C6000CF92DF92EF92FF920F931F93CF93DF9378
:100C7000CDB7DEB764970FB6F894DEBF0FBECDBF19
:100C80008C016B01DC0116966D917C910E94DC0554
:100C900081111BC060E070E0CB0164960FB6F89440
:100CA000DEBF0FBECDBFDF91CF911F910F91FF909F
:100CB000EF90DF90CF90BF90AF909F908F907F90FC
:100CC0006F905F904F903F900895D8011696ED91E8
:100CD000FC9130801982E1E0F0E0FB83EA83412C53
:100CE000512C3201812C912C54018394BE016F5FF1
:100CF0007F4FC8010E94DC05882361F2EA80FB80F7
:100D0000BFEFEB1AFB0A8981D8011696ED91FC9191
:100D10002A813B81E20FF31F8083E981AE2FAF77F9
:100D2000B0E0A50194010E943E2D460E571E681E9C
:100D3000791E37E0880C991CAA1CBB1C3A95D1F788
:100D4000E7FD44C0332D307F332E8FEF8E0DD6015B
:100D50008C93B0E33B1353C0F801668177816E0D2D
:100D60007F1DC8010E94DC05882309F493CFD801B8
:100D700016966D917C918A819B810296680F791FEE
:100D8000C8010E94DC05882309F484CFEA80FB8037
:100D9000B3E0EB0EF11CD8011696ED91FC91D60153
:100DA0008C91DF01A80FB11D11968C91119790E0E5
:100DB000982F882712962C91820F911D208121FD5A
:100DC0000296F2E0E0E030E020E01FC0FB82EA8221
:100DD00097012530310509F089CF8FEF9FEFD801BA
:100DE00098969C938E93979714968D919C91DC0185
:100DF000ED91FC910488F589E02D09954BCFF0E049
:100E0000E0E030E020E090E080E0A70170E060E00A
:100E10008F2E9E2EA32EB22E481959096A097B09DE
:100E20004E835F83688779879C0150E040E02B8781
:100E30003C874D875E874E815F8168857985480D47
:100E4000591D6A1D7B1D4A835B836C837D838414DB
:100E50009504A604B70408F051C0BE016F5F7F4F30
:100E6000C8010E94DC05882309F414CFD8019596A7
:100E70000D90BC91A02DBC8BAB8BAB2B49F1B0E39B
:100E80003B1226C0F60120814EEF5FEF6FEF7FEF40
:100E9000421B5109610971098A819B81AC81BD8125
:100EA000480F591F6A1F7B1F8B859C85AD85BE85AA
:100EB00084179507A607B70758F4AB89BC89ED914D
:100EC000FC9111970190F081E02D6981CD01099588
:100ED000F80180859185E816F90650F4898106802D
:100EE000F781E02DEE0DFF1D8083FFEFEF1AFF0A63
:100EF0002FEF821A920AA20AB20A9DCFD8019596C4
:100F00008D919C919697892B81F418968D919C9147
:100F1000B0E0A0E02A813B814C815D81821793077C
:100F2000A407B50710F4F12CE12CB70190E080E0A4
:100F3000B4CEFC0120812EBD9B012150310941F02E
:100F400051810DB407FEFDCF4EB55EBD4193F5CF87
:100F500061507109860F971F0DB407FEFDCF2EB5A6
:100F6000FC0120830895E0919502F0919602808122
:100F700090919402892B80830895E0919502F091DD
:100F800096029081809194028095892380830895B0
:100F90008EBD00000DB407FEFDCF8EB50895AF9253
:100FA000BF92CF92DF92EF92FF920F931F93CF9356
:100FB000DF93CDB7DEB728970FB6F894DEBF0FBE2C
:100FC000CDBF8C017B016A01809109048333E1F478
:100FD0005801A40EB51EA016B10609F46FC00E94F8
:100FE000BD0780EF0E94C807812F0E94C807802F8D
:100FF0000E94C8070F5F1F4FF70181917F010E9478
:10100000C8070E94B307E7CF5B01A40EB51E843367
:10101000C1F40E94BD0719830A838D2D80688B83DC
:10102000CC8264E070E0CE0101960E949907AE1474
:10103000BF0409F441C0F70181917F010E94C807F4
:10104000F6CF0E94BD070F3F110509F028F4198261
:101050000A8384E08B830CC017FD17C019820A83B2
:1010600033E0169507953A95E1F7007E0C600B8307
:1010700086E0C816D104A0F5F701DE011496EA1542
:10108000FB0599F081918D93FACFC80126E09695E2
:1010900087952A95E1F7807E19830A830115104C04
:1010A00010F48461D7CF8C61D5CFB6016D5F7F4FCF
:1010B000CE0101960E9499070E94B307C6012896A7
:1010C0000FB6F894DEBF0FBECDBFDF91CF911F9159
:1010D0000F91FF90EF90DF90CF90BF90AF90089569
:1010E00063E070E0CE0101960E949907F7018191BB
:1010F0007F010E94C807AE14BF04C1F7DDCFCF93B4
:10110000DF931F92CDB7DEB7898341E050E0BE0187
:101110006F5F7F4F90E080E00E94CF070F90DF91DC
:10112000CF91089590E020910904233339F40C966F
:10113000982F990F990F990F80E008954896F8CF4E
:10114000DA01E0919802F0E0FE2FEE27E60FF71F9C
:1011500090E0982F8827A901BD018E0F9F1F0C9446
:10116000CF07CF93DF9300D0CDB7DEB779836A8303
:1011700022E030E0AE014F5F5F4F60E170E00E941F
:10118000A0080F900F90DF91CF910895CF93DF9338
:1011900000D0CDB7DEB779836A8322E030E0AE01BC
:1011A0004F5F5F4F64E070E00E94A0080F900F90C7
:1011B000DF91CF910895CF93DF931F92CDB7DEB724
:1011C0002091980230E0322F2227260F371F90E01F
:1011D000982F8827498341E050E0BE016F5F7F4F21
:1011E000820F931F0E94CF070F90DF91CF91089538
:1011F000CF93DF931F92CDB7DEB76983DC01ED910A
:10120000FC910280F381E02D41E050E0BE016F5F70
:101210007F4F09950F90DF91CF9108950895FC01BC
:101220009485FB018485981303C081E0943008F015
:1012300080E00895CF93DF931F92CDB7DEB7698327
:10124000DC01ED91FC910280F381E02D41E050E062
:10125000BE016F5F7F4F09950F90DF91CF91089589
:1012600044E050E0BC018FE090E00C94CF0708957B
:10127000FF920F931F93CF93DF93EB01FC01178A2B
:10128000168A2A81211109C02B81211106C02C81C7
:10129000211103C02D81222301F141155105E9F0EF
:1012A0008A01FC01F08C80E591E00E94DC01AE0136
:1012B0004E5F5F4F24E030E06CE070E08F2D0E94C5
:1012C000A008B8018F2D0E94B10881E090E0DF9165
:1012D000CF911F910F91FF90089580E0F7CFFC010F
:1012E000848595850895FC018489958908952DE963
:1012F00031E0FC0131832083FB01408951896289FF
:101300007389FC0142835383648375830895DC01F0
:10131000ED91FC91048CF58DE02D099490E080E036
:101320000895FC01768765870895DC01ED91FC91B5
:1013300002A0F3A1E02D099591E089270895862F59
:10134000089581E08627089521E0FC01848584309A
:1013500008F020E0822F08950895AF92BF92CF92B7
:10136000DF92EF92FF920F931F93CF93DF9300D002
:1013700000D0CDB7DEB78C016B017A0180910904F2
:101380008333E9F45B016801C40ED51EC016D10693
:10139000A9F10E94BD078FE00E94C807812F0E941B
:1013A000C807802F0E94C8070F5F1F4F80E00E9470
:1013B000C807F50181935F010E94B307E7CF84332B
:1013C00069F50E94BD0719830A838F2D8F778B8360
:1013D000EC8264E070E0CE0101960E949907A701BB
:1013E00070E060E0C6010E94DF30E114F10421F0FA
:1013F000B701C6010E9499070E94B307C7010F9069
:101400000F900F900F90DF91CF911F910F91FF9050
:10141000EF90DF90CF90BF90AF9008950E94BD07EE
:101420000F3F110509F030F419820A831B8263E033
:1014300070E0D1CF17FD0BC019820A8333E01695F7
:1014400007953A95E1F7007E08600B83F0CFC8015D
:1014500026E0969587952A95E1F7807E19830A8381
:101460000115104C18F480618B83E1CF8861FCCFAB
:10147000CF93DF931F92CDB7DEB72091980230E073
:10148000322F2227260F371F90E0982F882741E020
:1014900050E0BE016F5F7F4F820F931F0E94AD0926
:1014A00089810F90DF91CF910895CF93C82F462F58
:1014B00061E070E00E94DB0861E070E08C2F0E9428
:1014C000380A8111F9CFCF910895CF93C82F80E5C5
:1014D00091E00E94DC0168E070E08C2FCF910C94C9
:1014E000550ACF93C82F80E591E00E94DC0160E1AE
:1014F00070E08C2FCF910C94550ACF93DF93EC01C1
:10150000888D843020F40E94710A84E0888FDF91F6
:10151000CF910895CF93C82F80E591E00E94DC0120
:1015200063E070E08C2FCF910C94380ACF93DF9357
:10153000EC018C858430D0F40E948A0A843189F0D1
:10154000882379F0883169F021E08C3159F4E88101
:10155000F9810084F185E02DCE01099521E0892BE8
:1015600009F420E0822FDF91CF91089580E0FBCF36
:10157000CF92DF92EF92FF92CF93DF93EC018C85B5
:10158000843068F40E94650A0E94E7026B017C01C6
:101590008C850E948A0A811109C084E08C87DF91C2
:1015A000CF91FF90EF90DF90CF90089561E070E0D1
:1015B00080E090E00E94B5020E94E702AB01BC010E
:1015C0004C195D096E097F098D859E85B0E0A0E00C
:1015D000481759076A077B07D8F28C850E94710A61
:1015E000DCCFCF93FC01C08D80E591E00E94DC014F
:1015F00060E270E08C2F0E94550A62E070E08C2F50
:101600000E94380A84FD16C062E070E08C2F0E94B0
:10161000380A83FF0AC048E162E070E08C2F0E9424
:10162000DB0880E090E0CF91089580E591E00E9492
:10163000DC01E3CF40E162E070E08C2F0E94DB0828
:1016400081E0F0CFCF93DF931F92CDB7DEB741E0BB
:1016500050E0BE016F5F7F4F90E080E00E94AD09D7
:1016600089810F90DF91CF910895CF93DF93C4E1EB
:10167000D0E00E94220B882361F061E070E080E0FE
:1016800090E00E94B5022197A1F780E0DF91CF9111
:10169000089581E0FBCF1F93CF93DF931F92CDB7C7
:1016A000DEB7182F80E591E00E94DC01812F0E94B7
:1016B000920827E0129FF0011124E351FC4F228190
:1016C0003381377041E050E0BE016F5F7F4F820F82
:1016D000931F0E94AD0989810F90DF91CF911F91D7
:1016E0000895FC01808D843040F4218D328D232BB0
:1016F00021F00E944B0B90E008958FEF9FEF08952B
:10170000CF93DF93FC012485243028F08FEF9FEFE7
:10171000DF91CF910895EC010190F081E02D0084DC
:10172000F185E02D0995892B89F38C850E944B0B5F
:1017300090E0EECFDA01E0919802F0E0FE2FEE2784
:10174000E60FF71F90E0982F8827A901BD018E0FA3
:101750009F1F0C94AD098F929F92AF92BF92CF9230
:10176000DF92EF92FF921F93CF93DF93CDB7DEB757
:101770002C970FB6F894DEBF0FBECDBF20910904A1
:1017800014E0222339F16B017C0180E591E00E9495
:10179000DC015E0127E0A20EB11C450110E063E010
:1017A00070E0812F0E94380AF40181934F01882351
:1017B00049F11F5F143099F710E0F50181915F0145
:1017C0008D31D9F08831C9F08A518230B0F01F5F75
:1017D000143099F7812F2C960FB6F894DEBF0FBE08
:1017E000CDBFDF91CF911F91FF90EF90DF90CF9011
:1017F000BF90AF909F908F90089560E170E0812F2F
:101800000E94550AA12EB12C83EE93E00197F1F7C7
:1018100042E870E060E0812F0E94DB084FEF62E059
:1018200070E0812F0E94DB08B601C114D10491F44D
:10183000809106019091070101968115F0EC9F07B8
:1018400008F45CC090930701809306016091060143
:1018500070910701812F0E94C60886E0E2E1F1E065
:10186000DE01119601900D928A95E1F7F7018381CF
:101870008F778C8384818D8385818E83A7014E5FD2
:101880005F4F24E030E06CE070E0812F0E94A00800
:10189000B601812F0E94B10826E030E0AE014F5F13
:1018A0005F4F66E070E0812F0E94A00861E070E069
:1018B000812F0E94550A27E02A9DC0012B9D900D83
:1018C00011249C0123513C4F7901F90111821082AE
:1018D00022E030E0AE01455F5F4F68E270E0812FAB
:1018E0000E949A0B8B859C85982789279827F7015A
:1018F000938382831682158214826CCF80E090ECF1
:10190000A1CFCF92DF92EF92FF920F931F93CF93CD
:10191000DF9300D000D000D0CDB7DEB78C016B01D3
:101920007A01FC01808D843010F40E94710A8DE9E7
:1019300091E09A838983F60182819381A481B581A4
:101940008B839C83AD83BE83B701CE0101960E9439
:10195000AB0BF801808F8430A0F4F586E486128EFC
:10196000118E81E026960FB6F894DEBF0FBECDBF74
:10197000DF91CF911F910F91FF90EF90DF90CF906B
:10198000089580E0EFCFAF92BF92CF92DF92EF92B7
:10199000FF920F931F93CF93DF9300D000D000D01E
:1019A000CDB7DEB7082F6B0180E591E00E94DC0126
:1019B0009E012F5F3F4F7901590110E063E070E015
:1019C000812F0E94380AF50181935F01882341F13C
:1019D0001F5F143099F710E0F70181917F018D317D
:1019E000D1F08831C1F08A518230A8F01F5F1430E5
:1019F00099F7812F26960FB6F894DEBF0FBECDBFA4
:101A0000DF91CF911F910F91FF90EF90DF90CF90DA
:101A1000BF90AF90089560E170E0812F0E94550A59
:101A2000E12EF12C83EE93E00197F1F7402F70E067
:101A300060E0812F0E94DB084FEF62E070E0812FB1
:101A40000E94DB08B601CD2889F4809106019091AF
:101A5000070101968115F0EC9F0798F1909307011B
:101A6000809306016091060170910701812F0E9409
:101A7000C60861E070E0812F0E94550A27E02E9D84
:101A8000C0012F9D900D11249C0123513C4F7901E1
:101A9000F9011182108222E030E0AE014B5F5F4F0E
:101AA00068E270E0812F0E949A0B8D819E819827B9
:101AB00089279827F70193838283168215821482DF
:101AC00098CF80E090ECCACFCF92DF92EF92FF9256
:101AD0001F93CF93DF93EC017B016A018C858430E7
:101AE00048F40E948A0A882319F08C850E94650AAE
:101AF00084E08C87F70182819381A481B58100976E
:101B0000A105B10551F490E080E0DF91CF911F91E4
:101B1000FF90EF90DF90CF9008958F3F9F4FAF4F92
:101B2000BF4F89F380910904811103C084E08C8741
:101B3000EACF70E060E081E20E94C30C182F8C872E
:101B4000843008F780E591E00E94DC01A7014E5F38
:101B50005F4F24E030E06CE070E0812F0E94A0082D
:101B6000B601812F0E94B10864E070E0812F0E94CD
:101B7000550A0E94E7026B017C018C850E948A0A4B
:101B8000873109F18C31F9F0882309F4BCCF0E9428
:101B9000E702AB01BC014C195D096E097F098D8517
:101BA0009E85B0E0A0E084179507A607B70738F038
:101BB00061E070E080E090E00E94B502DECF8C85AD
:101BC0000E94710AB3CF81E090E09FCF0F931F93E3
:101BD000CF93DF93EC018B01888D843010F40E9449
:101BE000710A80910904811107C094E0988FDF91F8
:101BF000CF911F910F910895B80182E00E94C30C0C
:101C0000888F843030F41D870C871A8E198E81E0FE
:101C1000EECF80E0ECCF7F928F929F92AF92BF92F7
:101C2000CF92DF92EF92FF920F931F93CF93DF93A8
:101C300000D0CDB7DEB7782E8B014A01590122E0E2
:101C400030E0AE014F5F5F4F64E270E00E949A0B9C
:101C5000E980FA80FE24EF24FE24E00EF11E9701B5
:101C6000377040910904072D10E0433309F042C05A
:101C7000085F1F4F102F0027110F110F110FC901FF
:101C8000800F911F4733C9F1A9014A0D5B1D4130F7
:101C9000584098F160E078E06B01C21AD30AA601BF
:101CA000B4010E94CF07A5014C195D09B4016C0D68
:101CB0007D1DC8010E94CF07EA0CFB1CF982EA8255
:101CC00022E030E0AE014F5F5F4F64E270E0872DAD
:101CD0000E94A0080F900F90DF91CF911F910F915C
:101CE000FF90EF90DF90CF90BF90AF909F908F903C
:101CF0007F900895005F1F4FBDCFA501B401DACFDB
:101D0000EF92FF921F93CF93DF9300D0CDB7DEB752
:101D1000182F22E030E0AE014F5F5F4F60E270E0CD
:101D20000E949A0BE980FA80FE24EF24FE2422E030
:101D300030E0AE014F5F5F4F60E270E0812F0E94A4
:101D40009A0B89819A81982789279827E816F9069E
:101D500089F487E0189FF0011124E351FC4FF582CC
:101D6000E482C7010F900F90DF91CF911F91FF90F8
:101D7000EF9008957C01DBCF1F93CF93DF93182F53
:101D800080E591E00E94DC01812F0E94800EEC0131
:101D900063E070E0812F0E94380A873121F08C3196
:101DA00011F0D0E0C0E0CE01DF91CF911F910895F6
:101DB000CF93DF93EC018C85843060F40E948A0A13
:101DC000873111F08C3131F48C850E94BC0E811565
:101DD000984088F3DF91CF910895FC018485843089
:101DE00010F40C94BC0E90E080E008959F92AF92A6
:101DF000BF92CF92DF92EF92FF920F931F93CF93F8
:101E0000DF938C015B01942EE52EFC01C688D788F8
:101E1000F08C80E591E00E94DC018F2D0E94800E05
:101E2000C92DDE2D8C179D0708F4EC019E01A5013C
:101E3000B6018F2D0E940B0EF801868997898C0FB1
:101E40009D1F978B868BCE01DF91CF911F910F91B4
:101E5000FF90EF90DF90CF90BF90AF909F9008954C
:101E60008F929F92AF92BF92CF92DF92EF92FF92AA
:101E70000F931F93CF936C015B018A01FC01C48512
:101E8000C430F0F57A014130584018F0E12C88E078
:101E9000F82E80E591E00E94DC018C2F0E94800EDC
:101EA0004C0163E070E08C2F0E94380A873111F0FA
:101EB0008C3149F58E149F0460F380E591E00E9417
:101EC000DC019701A50170E060E08C2F0E940B0EF1
:101ED00060E270E08C2F0E94550A62E070E08C2F67
:101EE0000E94380A84FD17C063E070E08C2F0E94C6
:101EF000380A81110BC081E090E0F6019383828360
:101F000010E000E010C0F12CE12CD7CF80E591E08B
:101F10000E94DC01E2CF40E162E070E08C2F0E9481
:101F2000DB08EF2841F3C801CF911F910F91FF907B
:101F3000EF90DF90CF90BF90AF909F908F900895DB
:101F4000FF920F931F93CF93DF9300D0CDB7DEB7EF
:101F5000F82E22E030E0AE014F5F5F4F66E270E0A6
:101F60000E949A0B09811A8110270127102722E06D
:101F700030E0AE014F5F5F4F66E270E08F2D0E9450
:101F80009A0B89819A81982789279827081719071A
:101F900049F4C8010F900F90DF91CF911F910F91DD
:101FA000FF9008958C01E3CF1F93CF93DF93182FF9
:101FB00087E0189FE0011124C351DC4F888199818B
:101FC000009761F480E591E00E94DC01812F0E947E
:101FD000A00F2E81821B910999838883DF91CF9175
:101FE0001F910895FC018485843010F40C94D40F63
:101FF00090E080E008954F925F927F928F929F923F
:10200000AF92BF92CF92DF92EF92FF920F931F9306
:10201000CF93DF9300D0CDB7DEB7782E6B014A01A6
:10202000A82EB12C27E0829FC0011124FC01E351AE
:10203000FC4F7F010081118180E591E00E94DC016D
:102040000815190554F4872D0E94A00FF701268169
:102050008C01021B1109118300830115110529F55B
:1020600063E070E0872D0E94380A843159F088239C
:1020700049F001E010E08C3111F410E000E011951E
:1020800001951109C8010F900F90DF91CF911F9119
:102090000F91FF90EF90DF90CF90BF90AF909F9007
:1020A0008F907F905F904F900895801691060CF46A
:1020B000840187E08A9DF0018B9DF00D1124E3518E
:1020C000FC4FE280F380C114D10451F12701F7E005
:1020D0005F22872D0E949208840D951D209109048E
:1020E000273309F453C09801240D351D21303840A1
:1020F00008F44CC020E038E0490184189508A40198
:10210000B6010E94AD092601480C591C6801C81887
:10211000D908872D0E949208A601B2010E94AD093C
:10212000E00EF11E87E08A9DF0018B9DF00D1124D9
:10213000E351FC4FF382E28220813181201B310B7D
:10214000318320838681800F912F911D8A3F9105D5
:1021500010F4232BF1F487E08A9DF0018B9DF00DA4
:102160001124E351FC4F1682F982EA8222E030E02A
:10217000AE014F5F5F4F68E270E0872D0E94A008BC
:1021800060E470E0872D0E94550A7CCFA801B6015B
:10219000C5CF868377CFCF93DF93FC01218D328D1E
:1021A0002115310529F48FEF9FEFDF91CF9108952D
:1021B000EC01808D4217530708F0A9010E94FB0F24
:1021C0001816190684F7298D3A8D281B390B3A8F7A
:1021D000298FEBCF0F931F93CF93DF931F92CDB730
:1021E000DEB7FC01218D328D232B41F48FEF9FEF61
:1021F0000F90DF91CF911F910F9108958C0141E0D5
:1022000050E0BE016F5F7F4FFC01808D0E94FB0F8D
:10221000181619065CF7F801818D928D0197928F3F
:10222000818F898190E0E4CFCF93DF931F92CDB768
:10223000DEB741E050E0BE016F5F7F4FFC01848557
:102240000E94FB0F1816190634F4898190E00F9054
:10225000DF91CF9108958FEF9FEFF9CFFC01848537
:10226000843010F40C94FB0F90E080E008950F93FD
:102270001F93CF93DF9300D0CDB7DEB7FC01248549
:102280002430E0F48C0180E591E00E94DC0122E042
:1022900030E0AE014F5F5F4F60E170E0F801848590
:1022A0000E949A0B89819A819827892798270F90F5
:1022B0000F90DF91CF911F910F91089590E080E0F2
:1022C000F6CF0F931F93CF93DF9300D0CDB7DEB738
:1022D000FC0124852430E0F48C0180E591E00E942B
:1022E000DC0122E030E0AE014F5F5F4F64E070E060
:1022F000F80184850E949A0B89819A819827892701
:1023000098270F900F90DF91CF911F910F91089513
:1023100090E080E0F6CFDC018DE991E08D939D9314
:1023200084E0FB0101900D928A95E1F70895EF9208
:10233000FF920F931F93CF93DF9300D000D0CDB7C0
:10234000DEB78C017B01FB0184858430A8F08DE928
:1023500091E0F801918380831282138214821582A6
:10236000C8010F900F900F900F90DF91CF911F91A8
:102370000F91FF90EF90089580E591E00E94DC01BD
:1023800024E030E0AE014F5F5F4F6CE070E0F7019A
:1023900084850E949A0BBE016F5F7F4FC8010E9427
:1023A0008B11DECF0F931F93CF93DF93CDB7DEB7A3
:1023B00028970FB6F894DEBF0FBECDBF8C01D801B1
:1023C00059964D915C915A974115510551F0ED91F7
:1023D000FC91048CF58DE02D70E060E0C80109955A
:1023E000EECFF801808D0E94D40F892BB1F148E027
:1023F00050E0BE016F5F7F4FD80158968C910E94CC
:10240000FB0F18161906F4F4D801509684E0FE016B
:10241000319601900D928A95E1F78D8190E0982F89
:1024200088272E81820F911DF801958B848B8F81D7
:10243000282F30E0322F22278885820F932F911D7D
:10244000928F818F28960FB6F894DEBF0FBECDBF56
:10245000DF91CF911F910F91089590E080E0F2CF2E
:102460004F925F926F927F928F929F92AF92BF92A4
:10247000CF92DF92EF92FF920F931F93CF93DF9350
:10248000CDB7DEB763970FB6F894DEBF0FBECDBFF2
:102490007C016B013A01FB0120E090E080E06AE002
:1024A0003191332309F461C040ED430F4A3008F005
:1024B0004DC0689FA001699F500D1124CA01C097AB
:1024C000830F911D37FD9A958F3F910549F340F396
:1024D000F70142815381648175818091D904909183
:1024E000DA04A091DB04B091DC04481759076A07AD
:1024F0007B0709F40DC28701085F1F4F0E94E702A6
:102500006F7077277C5FC8010E94E60D813009F06B
:1025100004C28DE991E09A838983F70182819381D6
:10252000A481B5818B839C83AD83BE8345E350E05A
:10253000BE016F5F7F4FC8010E943809892BA9F542
:10254000D12CC12CC8010E947D0A17C03E3209F06F
:10255000BFCF233009F4BCCFD301A20FB11D129617
:102560008C932F5F90E080E09BCF233009F0B0CFB9
:10257000F3018583CC24C394D12CC60163960FB696
:10258000F894DEBF0FBECDBFDF91CF911F910F91A9
:10259000FF90EF90DF90CF90BF90AF909F908F9083
:1025A0007F906F905F904F9008950E94E702F7012F
:1025B0007783668342E050E0B7016A5F7F4FC801CE
:1025C0000E94F60E81E090E09A83898342E050E019
:1025D000BE016F5F7F4FC8010E94F60E80E091E060
:1025E0009A83898342E050E0BE016F5F7F4FC8014C
:1025F0000E94F60E1A82198242E050E0BE016F5F1F
:102600007F4FC8010E94F60E42E050E0BE016F5FAE
:102610007F4FC8010E94F60E42E050E0BE016F5F9E
:102620007F4FC8010E94F60E5601F6018081882373
:1026300001F16501F60181912F01882311F08E329D
:10264000B1F446018A189B081814190474F48D8695
:1026500041E050E0BE01635F7F4FC8010E94F60E6B
:10266000A401B501C8010E94F60E5201DECF62013D
:10267000E1CF1D8641E050E0BE01635F7F4FC8019E
:102680000E94F60EC12CDD24D394DA82C98242E086
:1026900050E0BE016F5F7F4FC8010E94F60EDA82E4
:1026A000C98242E050E0BE016F5F7F4FC8010E94C7
:1026B000F60EC8010E94F10A892B09F441CFF3E01C
:1026C000AF2EB12C230122E0420E511CD4C0F701E1
:1026D0004281538164817581808D918DA28DB38DEE
:1026E000481759076A077B0709F008C1848D958D43
:1026F000C59709F003C181A192A15DEFC52EDD242C
:10270000DA940C970CF4ADC04CE050E0BE016F5F62
:102710007F4FC8010E94CB108B819C81982789270D
:1027200098279A8B898BF7014681578129813A81B5
:102730004217530709F0E7C097FFE5C08F7092700A
:102740003BEFC32EDD24DA94892B09F08AC06F8019
:1027500078847624672476242AEFC22EDD24DA9446
:102760006114710409F47DC0D12CC12C8D819E812E
:10277000982789279827C816D906F8F441E050E031
:10278000BE01635F7F4FC8010E94CB104D8544237B
:1027900031F050E070E060E0C8010E94CB108D8500
:1027A0008111ECCF44E050E070E060E0C8010E948D
:1027B000CB10FFEFCF1ADF0AD9CF912C812C41E04B
:1027C00050E0BE016D5E7F4FC8010E94CB104B8967
:1027D000842F807C09F06CC0442331F050E070E01D
:1027E00060E0C8010E94CB108B898111E8CF42E0E4
:1027F00050E0BE01615F7F4FC8010E94CB1042E0F4
:1028000050E0BE01635F7F4FC8010E94CB1044E0DF
:1028100050E070E060E0C8010E94CB1042E050E060
:10282000BE016F5E7F4FC8010E94CB108F859889D3
:1028300049895A898115914009F043C0CD84DE84CD
:10284000DC24CD24DC2481E0C816D104D1F5411567
:10285000544009F04AC044E050E0B201C8010E946F
:10286000CB1021E0A21AB10809F46CCEFFEFCF160D
:10287000DF0609F067CE0E94E7023B014C01C80168
:102880000E94D211181619060CF421CF0E94E702FB
:102890006619770988099909693873418105910595
:1028A00048F562E370E080E090E00E94B502E7CF77
:1028B00041E050E070E060E0C8010E94CB101B8A4C
:1028C00093CF54274527542770E060E0C8010E9449
:1028D000CB10FFEF8F1A9F0A6814790409F06FCFAD
:1028E00096EFC92EDD24DA94BCCFE7EFCE2EDD249F
:1028F000DA94B7CFCC24CA94DC2CB3CF6EEFC62EBB
:10290000DD24DA94AECF4CEFC42EDD24DA94A9CFC7
:102910008EEFC82EDD24DA9430CED12CC12C2DCEF2
:10292000CF92DF92EF92FF920F931F93CF93DF939B
:10293000CDB7DEB7AF970FB6F894DEBF0FBECDBFF1
:102940007C016A010DE911E01A8309831C861B864C
:1029500088EE93E0A0E0B0E08D879E87AF87B88BCC
:1029600083E291E09A878987188F0F8B198E1A8ED0
:102970001B8E1C8E84E089A31BA70AA71CA61DA67C
:102980001EA61FA68091CD049091CE04A091CF04E5
:10299000B091D0048EA39FA3A8A7B9A78B839C83D3
:1029A000AD83BE8318861F82AE01465D5F4FCE01A8
:1029B00001960E94301281309105B1F4D701ED915A
:1029C000FC910488F589E02D1DA30CA38CA59DA581
:1029D000AEA5BFA58EA39FA3A8A7B9A7A601BE01B8
:1029E0006C5D7F4FC7010995AF960FB6F894DEBFB7
:1029F0000FBECDBFDF91CF911F910F91FF90EF9050
:102A0000DF90CF900895CF92DF92EF92FF920F93D5
:102A10001F93CF93DF93CDB7DEB7AF970FB6F89480
:102A2000DEBF0FBECDBF8C016B017A018DE991E055
:102A30009A8389831B821C821D821E821C861B86B0
:102A400048EE53E060E070E04D875E876F87788BDB
:102A500023E231E03A872987988F8F8B198E1A8E5F
:102A60001B8E1C8E24E029A39BA78AA71CA61DA64B
:102A70001EA61FA6D8011C968C91843060F40E947B
:102A80008A0A882321F0F80184850E94650A84E07F
:102A9000D8011C968C938091CD049091CE04A09186
:102AA000CF04B091D0048EA39FA3A8A7B9A78B830E
:102AB0009C83AD83BE8318861F82AE01465D5F4F47
:102AC000B601CE0101960E9430120097C1F0D801E4
:102AD000ED91FC910684F785E02D8DE991E09DA3B1
:102AE0008CA38CA59DA5AEA5BFA58EA39FA3A8A7CB
:102AF000B9A7A701BE016C5D7F4FC8010995AF96CC
:102B00000FB6F894DEBF0FBECDBFDF91CF911F91FE
:102B10000F91FF90EF90DF90CF9008958F929F924A
:102B2000AF92BF92EF92FF920F931F93CF93DF93D9
:102B3000CDB7DEB7A1970FB6F894DEBF0FBECDBFFD
:102B40007C01FA01CB0119A2223008F42AE08E019F
:102B50000F5D1F4F822E912CB12CA12CBF01A5011E
:102B600094010E94882DF901CA016A3074F5605DF4
:102B7000D8016E938D01232B242B252B79F790E020
:102B800080E0109789F0FD0101900020E9F731976E
:102B9000AF014A1B5B0BD701ED91FC910280F381E1
:102BA000E02DB801C7010995A1960FB6F894DEBFD4
:102BB0000FBECDBFDF91CF911F910F91FF90EF908E
:102BC000BF90AF909F908F900895695CD1CF8F9206
:102BD0009F92AF92BF92CF92DF92EF92FF920F93AC
:102BE0001F93CF93DF937C01EB016C0182E0C80E51
:102BF000D11C4701E5E08E0E911C10E000E0F601CB
:102C000041916F0150E070E060E02AE0CE010E9447
:102C10008E155C01E881F9810190F081E02D6EE272
:102C2000CE0109958A0D9B1D080F191FC814D904E0
:102C300031F7F701458150E070E060E02AE0CE0115
:102C40000E948E15800F911FDF91CF911F910F91E0
:102C5000FF90EF90DF90CF90BF90AF909F908F90BC
:102C60000895FB0101900020E9F73197AF01461B61
:102C7000570B0C94FC03AF92BF92CF92DF92EF926E
:102C8000FF920F931F93CF93DF937C016B01EA01B7
:102C900010E000E0209741F0DC0118966D917C91E6
:102CA000CA010E943A288C01C7010E9409058823A5
:102CB00009F442C0F701A084B184B501C6010E94A5
:102CC0003A289801295F3F4F820F931FA816B90633
:102CD00098F1D70116966D917C9145E050E0C601C0
:102CE0000E94BA01BE01600F711FFE01EC01CE1BF4
:102CF000DF0B6E01CE0EDF1ED70116964D915C9153
:102D00006E177F0731F02191D601A40FB51F2C93C8
:102D1000F0CF055011099801280F391F60E3C70152
:102D2000DF91CF911F910F91FF90EF90DF90CF90A7
:102D3000BF90AF900C943E0580E0DF91CF911F9142
:102D40000F91FF90EF90DF90CF90BF90AF900895DC
:102D5000EF92FF920F931F93CF93DF93CDB7DEB720
:102D6000C054D1090FB6F894DEBF0FBECDBF7B01B2
:102D70009F938F938FE991E09F938F9382E691E0E9
:102D80009F938F931F9280E48F938E010F5F1F4F4D
:102D90001F930F930E944528A701B80180919202CA
:102DA000909193020E943B160FB6F894DEBF0FBEBF
:102DB000CDBFC05CDF4F0FB6F894DEBF0FBECDBFF6
:102DC000DF91CF911F910F91FF90EF900895CF93D6
:102DD000DF93EC0187E691E09F938F9380918F02C0
:102DE0001F928F93809191028F93809190028F9385
:102DF0000E9445280F900F900F900F900F900F900A
:102E00006091900270919102CE01DF91CF910C946C
:102E1000A816CF92DF92EF92FF920F931F93CF935A
:102E2000DF93CDB7DEB728970FB6F894DEBF0FBE9D
:102E3000CDBF0091D9031091DA03C8010E940905A2
:102E4000811117C1D80114968D919C91DC01ED91EF
:102E5000FC910688F789E02D0995882309F454C070
:102E600081E090E0F8019787868787E0E8E1F1E06C
:102E7000DE01119601900D928A95E1F7FE013196DF
:102E800085E090E02191D80116964D915C91DA0190
:102E9000A80FB91F2C9301968C30910599F7D80192
:102EA0001696ED91FC91179782E884871696ED911E
:102EB000FC9117971B968C911B9785871696ED9121
:102EC000FC9117971A968C911A9786871896ED9011
:102ED000FC90B7018BEB91E00E943A284196F801F3
:102EE000E816F90608F045C084819581DC01ED9172
:102EF000FC910488F589E02D099568E072E08AE08C
:102F000094E00E94311605C1D80191966D917C9193
:102F1000929714968D919C91DC01ED91FC91D801D2
:102F200093964D915C9194976115710569F00088B5
:102F3000F189E02D0995019709F492CF8EEF9FEF6B
:102F4000F80190A787A3D9CF0684F785E02D2DE956
:102F500031E03A8329835D96CD90DD90ED90FC9031
:102F60009097CB82DC82ED82FE82BE016F5F7F4F45
:102F7000E1CF668177814FE050E08BEB91E00E94DA
:102F8000BA017C01D8011896CD90DC90B6018CEC8A
:102F900091E00E943A288E0D9F1D0296F801C816F6
:102FA000D90608F4A1CF66817781A7018CEC91E066
:102FB0000E94BA019C0125503109D80116964D9105
:102FC0005C9160E1C8010E943E050E94E702F801A1
:102FD000608B718B828B938B648B758B868B978BBD
:102FE000F80184819581DC01ED91FC910084F185EB
:102FF000E02D0995892BF9F40E94E702F801C488B5
:10300000D588E688F7889B01AC012C193D094E094B
:103010005F0969017A0124853585A8EEB3E00E9435
:10302000AA2DC616D706E806F906D0F28CEF9FEF58
:1030300090A787A359CFBE01685F7F4FC8010E9448
:103040002706643071058105910509F076C0D80125
:103050001696ED91FC9117978381811169C00E94AA
:10306000E702F801648B758B868B978B108E10A608
:1030700017A261EE71E08AE094E00E94311600919F
:10308000D9031091DA03D8011896ED90FC90B7019E
:103090008CEE91E00E943A280996E816F906C8F1EC
:1030A000C8010E9409058823A1F1F801868597854A
:1030B000019609F444C097878687D8011696ED914A
:1030C000FC9117971F968C911F9785831696ED910B
:1030D000FC9117971E968C911E97868316966D917C
:1030E0007C9147E050E08CEE91E00E94BA01D8015B
:1030F0001696ED91FC911797E80FF91F10829C012D
:103100002450310916964D915C9162E8C8010E94E5
:103110003E0528960FB6F894DEBF0FBECDBFDF91F7
:10312000CF911F910F91FF90EF90DF90CF90089576
:1031300090E098969C938E939797F801D5CE81E076
:1031400090E097878687B9CF3F924F925F926F92B8
:103150007F928F929F92AF92BF92CF92DF92EF9227
:10316000FF920F931F93CF93DF93CDB7DEB7EA970C
:103170000FB6F894DEBF0FBECDBF7C012A013B0124
:1031800069010E94E7024B015C0187010D5B1F4F43
:10319000C8010E94D211181619069CF00E94E7027D
:1031A000681979098A099B0946165706680679063F
:1031B00008F466C162E370E080E090E00E94B5022E
:1031C000E7CF42E250E0BE016F5F7F4FC8010E942F
:1031D000CB1089818230D1F0312C832DEA960FB645
:1031E000F894DEBF0FBECDBFDF91CF911F910F913D
:1031F000FF90EF90DF90CF90BF90AF909F908F9017
:103200007F906F905F904F903F900895F801848970
:1032100095898334910501F76D817E818F81988531
:103220000E94852F4B015C01F60180829182A2826F
:10323000B38246E050E0B701685F7F4FCE014D9604
:103240000E94B730892B41F6F70180819181A281DC
:10325000B38188169906AA06BB0608F4BDCF8481FF
:103260009581A681B78188159905AA05BB0508F443
:10327000B3CF89899A89AB89BC8986879787A08BC8
:10328000B18B4EEC50E070E060E0C8010E94CB10C2
:10329000312CC701829698AB8FA7F701B696FAAB8F
:1032A000E9AB08969CAB8BAB67019AE1C90ED11CC8
:1032B000BD96FEABEDABC701429698AF8FABFD97C5
:1032C000FAAFE9AF4701FEE18F0E911CF801818D45
:1032D000928D181619060CF080CFC8010E94EA10D2
:1032E0008333910509F4B2C014F58130910509F4D6
:1032F00064C044F4892B51F3C8010E94EA10AC0168
:10330000552775C08330910509F462C00697A1F76F
:10331000C8010E94EA10B82E44E050E0B401C80190
:103320000E94CB10EB2DE450FF0BAF0160C08A333D
:10333000910509F45FC084F585339105B1F1C69715
:10334000D9F6C8010E94EA105C01B601CE01899647
:103350000E948B118BA59CA5ADA5BEA5892B8A2BA0
:103360008B2BB1F0EDA9FEA9408051806280738063
:10337000B601CE0183960E948B118DA19EA1AFA1B3
:10338000B8A5A501481659066A067B0609F0B8CF0C
:1033900044E050E0B60118C08B33910509F440C0F9
:1033A0008F3F910509F492CFA7CFC8010E94EA1080
:1033B000C8010E94EA10382E89CFC8010E94EA1085
:1033C00044E050E06FA978ADC8010E94CB107ECFD9
:1033D000C8010E94EA10B82E44E050E069AD7AAD11
:1033E000C8010E94CB108B2D8450990BAC0170E06A
:1033F00060E0EACFC8010E94EA1044E050E069A909
:103400007AA9C8010E94CB10F70166A177A180A517
:1034100091A50E94852F66A377A380A791A756CF79
:10342000C8010E94EA1044E050E06BA97CA9C801E1
:103430000E94CB10F70162A573A584A595A50E94F3
:10344000852F62A773A784A795A740CFC8010E94C4
:10345000EA1044E050E06FA578A9C8010E94CB10A3
:10346000F70162A173A184A195A10E94852F62A397
:1034700073A384A395A366A777A780AB91AB26CF50
:1034800033243A94AACE7F928F929F92AF92BF92AA
:10349000CF92DF92EF92FF920F931F93CF93DF9320
:1034A000CDB7DEB7A6970FB6F894DEBF0FBECDBF7F
:1034B0008C01762E942E852E20E2A22ECE0101962E
:1034C0007C01DC01EA2D1D92EA95E9F76801F3E43D
:1034D000CF0ED11C8DE991E09AA389A38FEF8BA326
:1034E0008CA38DA38EA343E450E0BE016F5D7F4F9C
:1034F000C6010E943809019609F4BFC081E08983A2
:103500008A8386E0B82EBB821C82D80114966D9106
:103510007D918D919C9117970E94852F6D837E835D
:103520008F83988789869A8680E890E09C878B872E
:103530004CE150E0B701C6010E94F60EFE0137963D
:103540008AE1DF011D928A95E9F74801B8E08B0E08
:10355000911CF401D70101900D92BA94E1F740E17A
:1035600050E0B701C6010E94F60EF7011192AA942D
:10357000E9F796E0A92EB12C40E250E0B701C60170
:103580000E94F60EF1E0AF1AB108B1F783E6898325
:1035900092E89A8393E59B838C8385E38D8381E016
:1035A0008E837F829DE3988797E099878A8786E05C
:1035B000F401DE011B9601900D928A95E1F78CE0F3
:1035C000898B8A8B65E172E0CE0143960E94F130CF
:1035D000D8011B966C91CE0149960E94DF01F8013B
:1035E0006485CE014B960E94DF01D8011D966C9137
:1035F000CE014D960E94DF014EE150E0B701C601B9
:103600000E94F60EB3E07B121EC082E3898384E041
:103610008A83F80196859B8397859C8390899D83F7
:1036200091899E8396E39F838887828D8987838D86
:103630008A87848D8B87858D8C874CE050E0B7011D
:10364000C6010E94F60E87E3898386E08A8391E0B3
:103650009B8393E09C838D838FE08E838AE38F83AB
:103660008BE388878FEF898749E050E0B701C60177
:103670000E94F60EC6010E94F10AA6960FB6F894B3
:10368000DEBF0FBECDBFDF91CF911F910F91FF9095
:10369000EF90DF90CF90BF90AF909F908F907F90F2
:1036A00008952F923F924F925F926F927F928F92E6
:1036B0009F92AF92BF92CF92DF92EF92FF920F93C1
:1036C0001F93CF93DF9300D000D000D0CDB7DEB7EB
:1036D0008C010E94D4272FEC37E040E050E00E949C
:1036E0001F2DDC01CB010196A11DB11DF8018483C2
:1036F0009583A683B78380839183A283B383580184
:10370000F3E4AF0EB11CC5010E947D0A64E470E0D1
:10371000C5010E94E60D882309F445C10E94E70215
:103720002B013C01480182E4880E911C48EEC42E16
:1037300043E0D42EE12CF12C52E0252E1E821D8276
:10374000D4018C918330B1F1811166C0F80184817C
:103750009581A681B7810196A11DB11D84839583B2
:10376000A683B7830E94E702641975098609970941
:10377000A70196010E94882DA90161E0C8010E945D
:10378000431A81E0D4018C938D819E810197C1F20F
:103790000E94E7026419750986099709D801D6962F
:1037A0002D913D914D915C91D99726173707480788
:1037B000590720F6C5010E947D0AF8018481958190
:1037C000A681B7810196A11DB11D84839583A6832F
:1037D000B7830E94E702F801FE96608371838283BB
:1037E00093838D819E8126960FB6F894DEBF0FBE1F
:1037F000CDBFDF91CF911F910F91FF90EF90DF90A0
:10380000CF90BF90AF909F908F907F906F905F9080
:103810004F903F902F9008958430F1F4F801848107
:103820009581A681B7810196A11DB11D84839583E1
:10383000A683B7830E94E702641975098609970970
:10384000A70196010E94882DA90163E0C8010E948A
:10385000431AD4012C9298CF813051F5F80142AD32
:1038600053AD64AD75AD9E012F5F3F4FC8010E94FF
:10387000A418382EF2E08F1390C089819A81AB8111
:10388000BC81F80184839583A683B7830E94E702F5
:103890006419750986099709A70196010E94882D68
:1038A000A90163E0C8010E94431AD4013C926CCF85
:1038B000823009F069CFF80142AD53AD64AD75AD0A
:1038C0009E012F5F3F4FC8010E94A418382EF5E0DB
:1038D0008F135DC0E3E0D401EC93F80182A193A1C2
:1038E000A4A1B5A1892B8A2B8B2B41F484E893E00A
:1038F000A0E0B0E082A393A3A4A3B5A3F80186A19E
:1039000097A1A0A5B1A5892B8A2B8B2B61F482A14D
:1039100093A1A4A1B5A1B695A7959795879586A3E0
:1039200097A3A0A7B1A7F80182A593A5A4A5B5A5C3
:10393000892B8A2B8B2BA9F482A193A1A4A1B5A1D9
:10394000AC01BD0123E076956795579547952A957B
:10395000D1F7841B950BA60BB70B82A793A7A4A73F
:10396000B5A7F80186A197A1A0A5B1A586A797A79D
:10397000A0ABB1AB82A593A5A4A5B5A582AB93AB33
:10398000A4ABB5AB81E090E09E838D83FDCE96E045
:10399000891303C0D4011C92F7CEBFEF3B12F4CEC3
:1039A000F4011082F1CE1E821D821BCFBF92CF92F6
:1039B000DF92EF92FF920F931F93CF93DF93CDB7D8
:1039C000DEB72C970FB6F894DEBF0FBECDBF6C01EB
:1039D0007A018091920290919302892B99F1B09093
:1039E0008F028B2D90E04817590720F07C0121E0D1
:1039F000E21AF1080091900210919102A701C8010A
:103A00000E94C430F801EE0DFF1D10826FE270E0DD
:103A1000C6010E940731009729F1BC016F5F7F4FFB
:103A20004BE050E0CE0101960E94F8301C866FE218
:103A300072E0C8010E9412310097B1F4CE010196E4
:103A40000E94E7162C960FB6F894DEBF0FBECDBFCE
:103A5000DF91CF911F910F91FF90EF90DF90CF906A
:103A6000BF9008951982E2CF7C012AE0E20EF11C9A
:103A700062E270E0C7010E94E630892BF9F26AE346
:103A800072E0C8010E9412316C01892B19F089E0A3
:103A9000C80ED11C48E050E066ED71E0C7010E94FD
:103AA0002C28892BB9F5C114D10481F164E472E0AA
:103AB000C6010E941231892B49F181E080938E0268
:103AC000FF24F3946F2D84E00E941F0285E292E0B0
:103AD000FF2011F08CE192E09F938F9384E891E0B6
:103AE0009F938F931F92BF921F930F930E9445281D
:103AF0006091900270919102CE0101960E94A816E9
:103B00000FB6F894DEBF0FBECDBF9CCF10928E02D1
:103B1000F12CD8CF49E050E06CEC71E0C7010E9475
:103B20002C28892B09F08ACF0E94E70228EE33E087
:103B300040E050E00E94882D5F934F933F932F9376
:103B400080918E021F928F9383EA91E09F938F93CF
:103B50001F92BF921F930F930E944528C9CF0C94C8
:103B60002E301F920F920FB60F9211242F933F9376
:103B70008F939F93AF93BF938091E5039091E6035A
:103B8000A091E703B091E8033091E40323E0230F11
:103B90002D3758F50196A11DB11D2093E4038093A4
:103BA000E5039093E603A093E703B093E8038091C5
:103BB000E9039091EA03A091EB03B091EC03019625
:103BC000A11DB11D8093E9039093EA03A093EB0339
:103BD000B093EC03BF91AF919F918F913F912F9143
:103BE0000F900FBE0F901F90189526E8230F029696
:103BF000A11DB11DD2CF1F920F920FB60F921124AB
:103C00002F933F934F935F936F937F938F939F93E4
:103C1000AF93BF93EF93FF938AE094E00E947A04FE
:103C2000FF91EF91BF91AF919F918F917F916F9194
:103C30005F914F913F912F910F900FBE0F901F906A
:103C400018951F920F920FB60F9211242F938F93F6
:103C50009F93EF93FF93E0911A04F0911B048081EE
:103C6000E0912004F091210482FD1BC0908180919D
:103C700023048F5F8F7320912404821741F0E09119
:103C80002304F0E0E65FFB4F958F80932304FF91C0
:103C9000EF919F918F912F910F900FBE0F901F90DA
:103CA00018958081F4CF0F931F93CF93DF93EAE0B1
:103CB000F4E01382128288EE93E0A0E0B0E0848307
:103CC0009583A683B7832DE431E03183208325ECEF
:103CD00030E03587248724EC30E03787268720ECD6
:103CE00030E0318B208B21EC30E0338B228B22ECC7
:103CF00030E0358B248B26EC30E0378B268B118E11
:103D0000128E138E148EE7EAF4E0CDE9D1E0D18370
:103D1000C0831282138214821582EDEAF4E0D1830B
:103D2000C0831282138214821582E3EBF4E0D18304
:103D3000C0831282138214821582E9EBF4E0D183EE
:103D4000C0831282138214821582EFEBF4E0D183D8
:103D5000C0831282138214821582E5ECF4E0D183D1
:103D6000C0831282138214821582E1EDF4E0D183C4
:103D7000C0831282138214821582EBECF4E0D183AB
:103D8000C0831282138214821582E7EDF4E0D1839E
:103D9000C0831282138214821582EDEDF4E0D18388
:103DA000C0831282138214821582E3EEF4E0D18381
:103DB000C0831282138214821582E9EEF4E0D1836B
:103DC000C0831282138214821582E7E2F5E0D18368
:103DD000C0831282138214821582E8E1F5E0138217
:103DE000128284839583A683B7838BE691E09183C7
:103DF000808384E0848788EE93E0968785870FEE42
:103E000014E0D80113961C921E9212978FE591E050
:103E100011969C938E935C96DC93CE935B975D9604
:103E20001D921D921D921C9290978FEF9FEF989676
:103E30009C938E9397971596FC93EE931497969672
:103E40001C921E92959780E091E00E94922FF801BB
:103E50009783868380E091E0918780878FE090E070
:103E60009387828795878487EDE2F5E0D183C083CD
:103E70001282138214821582A3E3B5E082E01596C4
:103E80008C93159786E116968C931697EAE9F2E0E3
:103E9000E4911796EC931797E6E8F2E0E491189610
:103EA000EC93189740E85EE360E070E01D964D9358
:103EB0005D936D937C935097DF91CF911F910F91FC
:103EC0000895CF93DF93CDB7DEB7AB970FB6F894D5
:103ED000DEBF0FBECDBF789484B5826084BD84B54B
:103EE000816084BD85B5826085BD85B5816085BDF5
:103EF00080916E00816080936E00109281008091AD
:103F00008100826080938100809181008160809334
:103F10008100809180008160809380008091B10059
:103F200084608093B1008091B00081608093B00084
:103F300080917A00846080937A0080917A00826018
:103F400080937A0080917A00816080937A008091DA
:103F50007A00806880937A001092C100E0911A0480
:103F6000F0911B0482E08083E0911604F091170425
:103F70001082E0911804F09119048FEC8083109264
:103F80002204E0911E04F0911F0486E08083E091FA
:103F90001C04F0911D04808180618083E0911C04E9
:103FA000F0911D04808188608083E0911C04F09171
:103FB0001D04808180688083E0911C04F0911D04C1
:103FC00080818F7D808369E472E08AE094E00E94C2
:103FD000311662E083E00E944D0262E08091380574
:103FE0000E944D020E94E702605D774081099109BD
:103FF00060933C0570933D0580933E0590933F058B
:1040000087E38093450561E085E00E944D0261E011
:1040100086E00E944D0261E087E00E944D0261E06F
:1040200084E00E944D0261E087E00E941F0240E0B0
:1040300053E05093D7034093D60328EC2093D80342
:104040008FEE94E0909393028093920250939102AA
:104050004093900220938F0226ED3CE130930905B6
:10406000209308059093DA038093D9038091F80296
:1040700081112AC01092E0021092DF0288EE93E0D4
:10408000A0E0B0E08093E1029093E202A093E3020B
:10409000B093E40283E291E09093DE028093DD022C
:1040A0008DE991E09093EC028093EB021092ED0287
:1040B0001092EE021092EF021092F00284E08093D0
:1040C000F50281E08093F8028AE992E09093C903B7
:1040D0008093C803809199028111ADC060E372E0C2
:1040E00080E090E00E94B502DFB6F8941EE8E12E71
:1040F00012E0F12E02EA12E080919702811125C0B0
:10410000F7018491F8019491E82FF0E0EE0FFF1F82
:10411000EE5AFD4FA591B4918C91982321F461E062
:104120008AE00E941F0261E08AE00E944D028CB585
:1041300080618CBD8CB580648CBD61E08DE00E9497
:104140004D0261E08BE00E944D02809197028F5FEB
:1041500080939702DFBEF701E490EE2DF0E0EE0FC2
:10416000FF1FE45AFD4F859194919093960280939E
:104170009502F80104910093940261E08AE00E94A4
:104180004D020E94B30780E591E00E94DC0184E3C8
:104190008093090480E80E947F080E94350B8823E1
:1041A00009F4F5C088E00E947F080E94220B883045
:1041B00009F0EDC080E10E947F080E94220B80314F
:1041C00009F0E5C080E00E947F080E94220B182FB2
:1041D0008111DDC041E050E0BE016F5F7F4F8FE194
:1041E00090E00E94AD098981833009F0D0C080E45D
:1041F0008093980242E06EE170E0812F0E94DB081C
:1042000042E06FE170E0812F0E94DB081F5F1430F5
:1042100089F740E06EE170E0812F0E94DB0840E00A
:104220006FE170E0812F0E94DB081F5F183089F773
:1042300081E08093990280E591E00E94DC0146E0F4
:1042400050E060E071E089E090E00E94CF078DE9E6
:1042500091E09A8389831B821C821D821E82CE017B
:1042600003960E9430098091C8039091C903DC0134
:1042700092961D921D921D921C929597FC0116A27A
:1042800017A210A611A69A961D921D921D921C921D
:104290009D9740E65AEE60E070E046AB57AB60AFEA
:1042A00071AF40EA5FE060E070E0DA964D935D93B5
:1042B0006D937C93DD973E9624E1DF011D922A9554
:1042C000E9F726E0E0E0F1E0DC01189601900D92BC
:1042D0002A95E1F7FC01EE5BFF4F10820E94511B13
:1042E000019709F0BDC080E591E00E94DC010091DA
:1042F000C8031091C903B801625F7F4FCE010196D8
:104300000E948B11CE0103960E943009B8016A5EAB
:104310007F4FCE0101960E948B1144E050E0BE0118
:104320006D5F7F4F81E090E00E94CF07B8016E5E25
:104330007F4FCE0101960E948B1144E050E0BE01F8
:104340006D5F7F4F85E090E00E94CF07B801625E0D
:104350007F4FCE0101960E948B118B819C81AD8194
:10436000BE818093CD049093CE04A093CF04B093EC
:10437000D0040E9490027F73809106019091070102
:1043800068277927709307016093060169C087E366
:104390008093090480E80E947F080E94350B8823DF
:1043A00029F188E00E947F080E94220B8830F1F4F6
:1043B00080E10E947F080E94220B182F8031B1F407
:1043C00080E00E947F080E94220B81110FC041E013
:1043D00050E0BE016F5F7F4F89E390E00E94AD091E
:1043E0008981843019F41093980222CF83E380935B
:1043F000090480E80E947F080E94350B882371F130
:1044000080E10E947F080E94220B803139F582E111
:104410000E947F080E94220B823101F580E00E94F9
:104420007F080E94220B811119C084E080939802BA
:1044300015E51A8F41E050E0BE01665E7F4F8BE1CB
:1044400090E00E94CF07198F41E050E0BE01675E07
:104450007F4F8AE190E00E94CF07EACE10920904D4
:1044600060ED77E080E090E00E94B502E091D90332
:10447000F091DA038FE592E092A381A38BE597E0B8
:1044800094A383A30E94091786ED9CE190930905EC
:104490008093080560E087E00E941F02FE0171968C
:1044A000FC8FEB8F89EF93E09C0133273BA32AA37A
:1044B000AE01475F5F4F5E8F4D8F0091C803109133
:1044C000C9030115110509F4D3C00E94E7024B018D
:1044D0005C0178015EE3E50EF11CF70180819181BA
:1044E000A281B381A5019401281B390B4A0B5B0BF8
:1044F000CA01B901683E33E0730781059105B8F13F
:1045000028EE33E040E050E00E94882D861A970A9A
:10451000A80AB90AD7018D929D92AD92BC921397C9
:10452000F80186A597A5A0A9B1A969017A01CC0CCB
:10453000DD1CEE1CFF1C8C159D05AE05BF0508F0AB
:1045400003C1D8019E961D921D921D921C92D19777
:10455000F80182A993A9A4A9B5A98C159D05AE055A
:10456000BF0508F0FBC012AA13AA14AA15AAF801E5
:1045700086A597A5A0A9B1A9892B8A2B8B2B09F019
:10458000F6C0EE5BFF4F8081833009F0F0C084E01D
:104590008083C8010E94511B0196D801D2964D918B
:1045A0005D916D917C91D597452B462B472BA1F4BE
:1045B000F801EE5BFF4F2081233011F021110CC078
:1045C0001082F8013E9684E1DF011D928A95E9F799
:1045D000C8010E94511B03968230910519F004977F
:1045E00009F046C080E591E00E94DC010091C8031B
:1045F0001091C903B801625F7F4FCE0101960E94FE
:104600008B11CE0103960E943009B8016A5E7F4F7C
:10461000CE0101960E948B1144E050E0BE016D5F17
:104620007F4F81E090E00E94CF07B8016E5E7F4F20
:10463000CE0101960E948B1144E050E0BE016D5FF7
:104640007F4F85E090E00E94CF07B801625E7F4F08
:10465000CE0101960E948B118B819C81AD81BE8120
:104660008093CD049093CE04A093CF04B093D00454
:104670008091D9039091DA030E940905882309F4F7
:1046800089C10091D9031091DA03C8010E9409057C
:10469000882309F444C00E94E7026B017C01F80101
:1046A00022853385A8EEB3E00E94AA2D84889588E0
:1046B000A688B788A7019601281939094A095B0914
:1046C00049015A01681579058A059B0590F0808893
:1046D0009188A288B388A7019601281939094A0947
:1046E0005B0949015A01681579058A059B0508F09F
:1046F00067C0D80158968C9158978823D9F1ECEF70
:10470000FFEF9896FC93EE93979714968D919C915A
:10471000DC01ED91FC910488F589E02D09950E945A
:10472000F302882351F0809139058C3009F4AFC130
:1047300008F053C18B3009F46AC1812C912C30EC04
:10474000A32E3FE7B32E8DC1821B930BA40BB50B99
:10475000F80186A797A7A0ABB1ABFACE821B930B4B
:10476000A40BB50B82AB93ABA4ABB5AB00CF90E081
:1047700080E013CF1696ED91FC91179780EC808323
:104780001696ED91FC911797118214968D919C913C
:10479000159716966D917C91DC01ED91FC9102804C
:1047A000F381E02D42E050E00995F801C08AD18AFA
:1047B000E28AF38AC48AD58AE68AF78A81E0808F02
:1047C000F80184819581DC01ED91FC910084F185F3
:1047D000E02D0995892B09F4A2CFBE016F5F7F4FB1
:1047E000C8010E9427062B01672B09F4CFC0F801EE
:1047F000C48AD58AE68AF78A0680F781E02D80810F
:10480000807F803309F0A1C0D80159968D919C9189
:10481000892B09F484CF498150E0CA0102968E0F9A
:104820009F1FDF01A40FB51F11968C90912C982C1F
:104830008824DC016C91860E911C4D5F5F4FBF0197
:10484000640F751FA4010E94CD30E981D80116962E
:104850008D919C911797880D991DE80FF92FF11DE7
:10486000128216960D90BC91A02D298130E019017D
:10487000E2E02E0E311C2A0E3B1E8C91867089A31D
:10488000F801A18CB28C823009F04CC0C401820FB7
:10489000931FFD01E80FF91F438150E0542F442777
:1048A0006481FA01E60FF11DF8A3EF8F4BEF5FEF84
:1048B000421B530B48195909440D551DBC016B5F30
:1048C0007F4F6A0F7B1FC101F5010995D80116962C
:1048D000ED91FC91179780E480831696ED91FC9101
:1048E000B9A1B183D8011696ED91FC91B8A1B2831C
:1048F000D8011696ED91FC91BF8DB383F8018481A8
:10490000958166817781DC01ED91FC910280F381D4
:10491000E02D44E050E00995F801C08AD18AE28A8E
:10492000F38AFDCE4DEF5FEF421B530B4819590937
:10493000440D551D2D5F3F4F280D391DBD01620FE0
:10494000731FC101F5010995EACE803CC9F480EDE1
:104950008083D8011696ED91FC91179711821496D9
:104960008D919C91159716966D917C91DC01ED913E
:10497000FC910280F381E02D42E050E00995CFCE1A
:10498000803D09F0CCCEF801108EC9CEC8010E943E
:104990000905C5CE0E94E7020091CA031091CB031E
:1049A0002091CC033091CD036B017C01C01AD10A58
:1049B000E20AF30A970186010838134121053105FF
:1049C00008F4ADCE6093CA037093CB038093CC03FD
:1049D0009093CD030E940917A2CE8551823008F032
:1049E000ACCE10913505612F70E0762F66276627D3
:1049F0007F7780913605682B90E080E00E945C2EE6
:104A00002DEC3CEC4CEC5DE30E94EF2E5CC0609121
:104A1000350570E090E080E00E945C2E6B017C0127
:104A20001091360517FF0AC0AC019B0160E070E0F1
:104A300080E89FEB0E94B92D6B017C011F70612FF4
:104A400070E090E080E00E945E2E2DEC3CEC4CEC9F
:104A50005DE30E94EF2EA70196010E94BA2D4B0143
:104A60005C010E94F302882309F465C08091390536
:104A70008B3030F08D3080F18551823008F466C182
:104A8000C12CD12C20ECE22E2FE7F22E43C0109146
:104A90003505612F70E090E080E00E945C2E6B0194
:104AA0007C01609136056F7070E090E080E00E94BC
:104AB0005E2E2DEC3CEC4CEC5DE30E94EF2EA7014A
:104AC00096010E94BA2D4B015C0117FFCACFB7FABD
:104AD000B094B7F8B094C5CF6091340570E090E021
:104AE00080E00E945E2E2DEC3CEC4CEC5DE30E94DD
:104AF000EF2E6B017C016091330570E090E080E067
:104B00000E945E2E9B01AC01C701B6010E94BA2D26
:104B10006B017C01A5019401C501B4010E945C2FC9
:104B2000811109C0A7019601C701B6010E945C2F3F
:104B3000882309F41DC14090D2035090D3036090A4
:104B4000D4037090D503C090CE03D090CF03E090F3
:104B5000D003F090D103332433948FE00E947E027F
:104B6000BC01990F880B990B0E945E2E20E93EE351
:104B70004AEF5EE30E94EF2E20E030E040E251E495
:104B80000E94EF2E4B015C0120E030E0A9010E9461
:104B9000EA2E20E030E040E05FE387FD4FC1C50131
:104BA000B4010E94BA2D0E94262E0E945E2E2DEC8A
:104BB0003CEC4CEC5DE30E94EF2E4B015C0114E0F9
:104BC00018A21F8E8EE00E947E02AF8DB8A1A80FA2
:104BD000B91FB8A3AF8F68EE73E080E090E00E9449
:104BE000B502115079F7E9E6F2E08491EBE9F2E0E1
:104BF0001491E7E8F2E0049122242394002389F041
:104C000081110E94F601E02FF0E0EE0FFF1FE65841
:104C1000FD4FA591B491EC911E23222423941111F0
:104C2000212C8091D9039091DA030E9409058823F1
:104C300009F47AC00E94E70268A779A78AA79BA710
:104C40002091E0033091E1034091E2035091E303AE
:104C5000DC01CB01821B930BA40BB50B883893416D
:104C6000A105B10508F460C028A539A54AA55BA532
:104C70002093E0033093E1034093E2035093E30376
:104C80008E010F5E1F4F21E041E0C301B2010E947F
:104C90006A270850110921E041E0C701B6010E94CE
:104CA0006A270850110921E041E0C501B4010E94C2
:104CB0006A271F923F923BA13F934AA14F931F92B5
:104CC0002F928F8C98A096948794969487949F9215
:104CD0008F921F930F939E8D9F93AD8DAF93BC8D3D
:104CE000BF93EB8DEF938FED91E09F938F93809126
:104CF000D8031F928F938091D7038F938091D6030F
:104D00008F930E9445284091D6035091D70366E7C0
:104D100072E08091D9039091DA030E943B160FB69E
:104D2000F894DEBF0FBECDBF8091D9039091DA0316
:104D30000E940905811187C061E087E00E941F027F
:104D400060E085E00E941F0260E0AEC06091330524
:104D50007091340576276727762790E080E00E94DF
:104D60005C2E2DEC3CEC4CEC5DE30E94EF2ED0CEA3
:104D700020E030E040E251E4C501B4010E94EF2E92
:104D80004B015C0120E030E0A9010E94EA2E20E006
:104D900030E040E05FE387FD47C0C501B4010E94F9
:104DA000BA2D0E94262E0E945E2E2DEC3CEC4CEC7F
:104DB0005DE30E94EF2E2B013C0120E030E040E259
:104DC00051E4C701B6010E94EF2E6B017C0120E087
:104DD00030E0A9010E94EA2E20E030E040E05FE3ED
:104DE00087FD27C0C701B6010E94BA2D0E94262E5A
:104DF0000E945E2E2DEC3CEC4CEC5DE30E94EF2E0D
:104E00006B017C014092D2035092D3036092D40391
:104E10007092D503C092CE03D092CF03E092D0031C
:104E2000F092D103312C99CEC501B4010E94B92D65
:104E3000B8CFC701B6010E94B92DD8CFC501B401C2
:104E40000E94B92DB0CE60E087E00E941F0261E0B1
:104E500085E0332009F476CF0E941F020E94E7020A
:104E60000091DC031091DD032091DE033091DF031C
:104E70006B017C01C01AD10AE20AF30A970186018C
:104E8000053F11402105310590F06093DC037093DC
:104E9000DD038093DE039093DF0361E08091DB0309
:104EA000811160E06093DB0386E00E941F0280E0D6
:104EB00090E0892B09F401CB0E946604882309F451
:104EC000FCCA0E940000F4CA8091F5049091F60497
:104ED0000C942E30EF920F931F93CF93DF93E80142
:104EE00034E047FD34E1042E000C550B57FF03C09E
:104EF000519541955109E32E022F242FAE010E94B6
:104F00004F2ACE01DF91CF911F910F91EF9008951D
:104F10008F929F92AF92BF92CF92DF92EF92FF92C9
:104F2000CF93DF93EC01688179818A819B81611540
:104F300071058105910521F464E279ED8BE597E037
:104F40002DE133EF41E050E00E941F2D49015A014D
:104F50009B01AC01A7EAB1E40E943E2D6B017C01EC
:104F6000ACEEB4EFA50194010E944C2DC60ED71EE5
:104F7000E81EF91EF7FE06C081E0C81AD108E10854
:104F800080E8F80AC882D982EA82FB82C701B601AA
:104F90009F77DF91CF91FF90EF90DF90CF90BF9000
:104FA000AF909F908F9008958F929F92AF92BF92F3
:104FB000CF92DF92EF92FF92609108017091090108
:104FC00080910A0190910B01611571058105910590
:104FD00021F464E279ED8BE597E02DE133EF41E0D8
:104FE00050E00E941F2D49015A019B01AC01A7EA24
:104FF000B1E40E943E2D6B017C01ACEEB4EFA50143
:1050000094010E944C2DC60ED71EE81EF91EF7FE15
:1050100006C081E0C81AD108E10880E8F80AC09209
:105020000801D0920901E0920A01F0920B01C70138
:10503000B6019F77FF90EF90DF90CF90BF90AF9039
:105040009F908F9008956093080170930901809359
:105050000A0190930B010895FB01DC01415050407F
:1050600030F08D910590801919F40020B9F7881B54
:10507000990B0895FC016150704001900110D8F720
:10508000809590958E0F9F1F0895AEE0B0E0EBE401
:10509000F8E20C945F2D0D891E898F89988D2EE082
:1050A0002C831A83098397FF02C080E090E8019760
:1050B0009E838D83AE01455E5F4F698D7A8DCE01F3
:1050C00001960E9475284D815E8157FD0AC02F818F
:1050D0003885421753070CF49A01020F131FF80189
:1050E00010822E96E4E00C947B2DABE0B0E0EBE771
:1050F000F8E20C94512D7C013B018A01FC011782DE
:105100001682838181FFC8C1CE0101965C01F7013F
:105110009381F30193FD859193FF81913F01882352
:1051200009F453C1853239F493FD859193FF819140
:105130003F01853229F4B70190E00E94912CE7CF1E
:10514000912C212C312CFFE1F31538F08B3211F129
:1051500090F4803209F1833229F137FC3CC020ED14
:10516000280F2A3050F536FE20C08AE0989E200D88
:105170001124922E06C08D3291F0803371F768941D
:1051800030F8F30193FD859193FF81913F018111E7
:10519000DACF21C0689431F8689432F8F2CF68947D
:1051A00033F8EFCF689434F8ECCFEAE02E9E200D70
:1051B0001124222E689435F8E4CF8E3229F436FC7F
:1051C00004C1689436F8DDCF8C3619F4689437F84A
:1051D000D8CF8836B1F2982F9F7D95549330E0F068
:1051E0008336A1F18337C1F1833509F063C028010B
:1051F000F2E04F0E511CF801C080D180692D70E0A3
:1052000036FC02C06FEF7FEFC6010E94862C4C0176
:10521000689437F882010AC00C5F1F4FFFE3F983DF
:1052200088248394912C6501E89437F833FE2DC0CF
:10523000522C8114910471F5552009F468CFB701FF
:1052400080E290E00E94912C5A94F6CFF801808180
:1052500089830E5F1F4FE4CF2801F2E04F0E511CEF
:10526000F801C080D180692D70E036FC02C06FEF7C
:105270007FEFC6010E943A284C018201D5CFB701C9
:1052800080E290E00E94912C2A942814190409F0DD
:10529000B0F7CECFF60137FC859137FE81916F01D3
:1052A000B70190E00E94912C51105A94F1E08F1AAE
:1052B0009108BFCF843619F0893609F077C0F8011C
:1052C00037FE6BC060817181828193810C5F1F4FBB
:1052D000F32DFF763F2E97FF09C09095809570952E
:1052E00061957F4F8F4F9F4F689437F82AE030E0E9
:1052F000A5010E94C12CC82ECA188C2C432C36FE46
:105300000CC0E89440F8C91440F434FE05C032FCE7
:1053100003C0F32DFE7E4F2E892C44FE95C0FE0166
:10532000EC0DF11D8081803309F087C0242D297E8A
:10533000422E842D8870582E43FC95C040FE8FC0AD
:105340009C2C821418F42C0C922C981844FE91C0BA
:10535000B70180E390E00E94912C42FE09C088E7EB
:1053600090E041FE02C088E590E0B7010E94912CD8
:10537000C91408F48AC0CA94D12C9FEFC91AD90A5B
:10538000CA0CDB1CF60182916F01B70190E00E940C
:10539000912CAC14BD04B1F74FCF60817181072E01
:1053A000000C880B990B0E5F1F4F92CFD32CE89403
:1053B000D4F82AE030E0853739F1232D297FD22E29
:1053C0008F3601F148F48835A9F0F701868197817D
:1053D0002B96E2E10C946D2D803749F08837A9F7C0
:1053E000D4FE02C06894D2F820E130E00DC0689489
:1053F000D4F8F6CF34FE03C0822F8660D82E20E189
:1054000032E002C028E030E0F801D7FE0FC0608132
:105410007181828193810C5F1F4FA5010E94C12C75
:10542000C82ECA183D2CE89437F867CF6081718187
:1054300090E080E00E5F1F4FF0CF42FC02C08394EB
:1054400078CF8394839475CF842D867809F471CFB7
:10545000F6CFB70180E290E00E94912C83948214F1
:10546000C0F3512C73CF522C5818821408F46ECF0D
:10547000F8CF842D867809F47BCF8BE241FE80E261
:1054800047FC8DE2B70190E071CFB70180E390E077
:105490000E94912C9A946CCF8FEF9FEF99CFA9E047
:1054A000B0E0E5E5FAE20C94572D6A01F22EB02E39
:1054B000102FFBE3AF2EA01608F41BE31F5F012F94
:1054C00027E0AE014F5F5F4F0E94AE2BBC01898188
:1054D000982F9970913009F43FC09BE2E1FC04C021
:1054E0009E2D9170E0FC3AC05E2D5071E82FE8705F
:1054F00083FF46C084E0911101C083E0EF2DE81BDB
:105500008F1508F0E0E0D6018E2F20E2552351F1EF
:10551000992329F0D6019C93C60101966C0196014E
:105520002D5F3F4FE2FE24C08EE4D6018C9391E4C0
:1055300011969C93119712968C93D9018E2F90E21D
:1055400081111BC0E20FF32FF11D10828EEF9FEF30
:105550002996ECE00C94732D9DE2C6CF90E2C4CF67
:105560002D9381508111FCCFCE0ED11CE0E0D0CF25
:105570008EE6D6018C9391E6DBCF9D938150E0CFF0
:10558000482F447082FF3DC084E0911101C083E048
:105590008F1510F4EF2DE81BD6018E2F20E2552336
:1055A00009F1992329F0D6019C93C60101966C015B
:1055B00096012D5F3F4FE2FE1BC089E4D6018C931C
:1055C0008EE411968C93119786E412968C93D901F0
:1055D0008E2F90E2882309F4B5CF9D938150FACFA6
:1055E0002D9381508111FCCFCE0ED11CE0E0D9CF9C
:1055F00089E6D6018C938EE611968C93119786E6F8
:10560000E4CF9B0177FF02C030E020E0A1E0B0E0F2
:10561000911102C0B0E0A0E0F9013196AE0FBF1FBA
:105620008B2C912CBB2009F461C05401EFEFAE1A12
:10563000BE0AAA0DBB1DFA161B0619F014F04F2D59
:105640004A1B511188C0E3FC59C07601A42FB0E277
:10565000A1114FC0C40ED11C992309F45BC040E0D6
:10566000D6011196F60190836D01552309F448C0C7
:10567000012F060F9A81582F507184FF03C0913378
:1056800009F4015010160CF047C0093008F008E08A
:10569000EEE2FE2E5B01A01AB1088501919481947F
:1056A00091082F3F320729F4D601FC92F60131967A
:1056B0006F016217730794F1021713077CF5DB0182
:1056C000A21BB30BAA24A394B12CAC0EBD1EAA0D31
:1056D000BB1D11968C9121503109D60111962815C8
:1056E0003905F4F0F60180836D01DBCFB12CA12CDC
:1056F000A0CFF701B1937F01A150AACF9111B0CFF4
:10570000D601942F50E302C05D9391509111FCCFCC
:10571000C40ED11C40E0ACCF01E0BACF80E3DBCFB8
:105720006217730731F4963388F4953311F45523D7
:1057300069F0F6018083FD01842F90E2811108C099
:10574000A40FB11D1C9290E080E002CF81E3F1CF65
:1057500091938150F3CF911183CF8ACF283008F0F5
:1057600027E03327DA01990F311D87FD91600096FC
:105770006105710539F432602E5F3D9330E32A955F
:10578000E1F708959F3F30F080387105610509F019
:105790003C5F3C5F3D93913008F08068911DDF9342
:1057A000CF931F930F93FF92EF92192F987F9695A7
:1057B000E92F96959695E90FFF27EE53FF4F99270E
:1057C0003327EE24FF24A701E701059008940794EE
:1057D00028F4360FE71EF81E491F511D660F771F6C
:1057E000881F991F0694A1F70590079428F4E70EE7
:1057F000F81E491F561FC11D770F881F991F661F6E
:105800000694A1F70590079428F4F80E491F561F37
:10581000C71FD11D880F991F661F771F0694A1F718
:105820000590079420F4490F561FC71FD81F990FE2
:10583000661F771F881F0694A9F78491109517702B
:1058400041F0D695C79557954795F794E7941A95E3
:10585000C1F7E8E6F0E068941590159135916591EF
:10586000959105907FE27395E118F10A430B560B71
:10587000C90BD009C0F7E10CF11E431F561FC91F09
:10588000D01D7EF4703311F48A95E6CFE894015070
:1058900030F0080F0AF40027021708F4202F239590
:1058A000022F7A3328F079E37D932A95E9F710C027
:1058B0007D932A9589F60694979567953795179560
:1058C0001794E118F10A430B560BC90BD00998F055
:1058D00023957E9173957A3308F070E37C932013BF
:1058E000B8F77E9170617D9330F0839571E37D937D
:1058F00070E32A95E1F71124EF90FF900F911F912B
:10590000CF91DF91992787FD90950895FC0105902F
:10591000615070400110D8F7809590958E0F9F1FB1
:1059200008950F931F93CF93DF93182F092FEB0147
:105930008B8181FD09C01FEF0FEF812F902FDF9129
:10594000CF911F910F91089582FF14C02E813F8146
:105950008C819D81281739073CF4E881F981CF01BA
:1059600001969983888310838E819F8101969F83FE
:105970008E83E3CFE885F985812F0995892BA1F3E3
:10598000DACFFA01AA27283051F1203181F1E894C9
:105990006F936E7F6E5F7F4F8F4F9F4FAF4FB1E022
:1059A0003ED0B4E03CD0670F781F891F9A1FA11D1D
:1059B000680F791F8A1F911DA11D6A0F711D811D1E
:1059C000911DA11D20D009F468943F912AE0269FE3
:1059D00011243019305D3193DEF6CF010895462F42
:1059E0004770405D4193B3E00FD0C9F7F6CF462F23
:1059F0004F70405D4A3318F0495D31FD405241938C
:105A000002D0A9F7EACFB4E0A69597958795779548
:105A10006795BA95C9F700976105710508959B01CF
:105A2000AC010A2E06945795479537952795BA9558
:105A3000C9F7620F731F841F951FA01D0895052EBF
:105A400097FB1EF400940E94362D57FD07D00E944C
:105A5000882D07FC03D04EF40C94362D50954095BC
:105A6000309521953F4F4F4F5F4F0895909580950A
:105A7000709561957F4F8F4F9F4F08950E94AA2D7B
:105A8000A59F900DB49F900DA49F800D911D112492
:105A90000895B7FF0C943E2D0E943E2D821B930B60
:105AA00008952F923F924F925F926F927F928F92C2
:105AB0009F92AF92BF92CF92DF92EF92FF920F939D
:105AC0001F93CF93DF93CDB7DEB7CA1BDB0B0FB6A7
:105AD000F894DEBF0FBECDBF09942A883988488864
